:020000040000FA
:060000000A128A11F32F21
:10001200F800F401F5017008F200F3017208F6002D
:100022007308F700781C162817281D287608F4078D
:100032000318F50A7708F50701300310F60DF70DDE
:10004200FF3E031D1E280310F80C7808031D2A2802
:100052002B2813287508F1007408F0000800831299
:100062000313DB006E305B02031C38283928462953
:100072003F30B1000030B0000030AF000030AE00C1
:100082006430F6000030F7005B08CC00CD014C086C
:10009200F8004D08F9000A168A15AE250A128A11CF
:1000A200760883120313CE0001300310CE0DFF3EFB
:1000B200031D562803104E0D7D3E84000A128A1538
:1000C2000A200A128A11CF000A128A150A200A127D
:1000D2008A11D0000A128A150A200A128A11D10046
:1000E2000A128A150A200A128A11D2005208B50091
:1000F2005108B4005008B3004F08B2000A128A1522
:100102009F240A128A11831203133108DA0030087D
:10011200D9002F08D8002E08D7000A30F600003088
:10012200F7005B08CC00CD014C08F2004D08F3004B
:100132006430F0000030F1000A168A15F0240A1229
:100142008A117108F9007008F8000A168A15AE259E
:100152000A128A11760883120313CE0001300310AB
:10016200CE0DFF3E031DB02803104E0D593E8400F4
:100172000A128A150A200A128A11CF000A128A1557
:100182000A200A128A11D0000A128A150A200A12BB
:100192008A11D1000A128A150A200A128A11D20083
:1001A2005208B1005108B0005008AF004F08AE002D
:1001B2005A08B5005908B4005808B3005708B200ED
:1001C2000A128A159F240A128A1183120313310814
:1001D200D6003008D5002F08D4002E08D3000A30EC
:1001E200F0000030F1005B08CC00CD014C08F200B9
:1001F2004D08F3000A168A15F0240A128A117008B3
:1002020083120313CE0001300310CE0DFF3E031DF7
:10021200052903104E0D353E84000A128A150A2064
:100222000A128A11CF000A128A150A200A128A11AA
:10023200D0000A128A150A200A128A11D1000A1263
:100242008A150A200A128A11D2005208B1005108F6
:10025200B0005008AF004F08AE005608B500550870
:10026200B4005408B3005308B2000A128A159F243E
:100272000A128A11831203133108CB003008CA0014
:100282002F08C9002E08C8003A2A0B305B02031C53
:100292004B294C29F7293F30B1000030B000003023
:1002A200AF000030AE000A30F6000030F7005B0805
:1002B200CC00CD014C08F8004D08F9000A168A1549
:1002C200AE250A128A11760883120313CE0001307A
:1002D2000310CE0DFF3E031D692903104E0D593E3A
:1002E20084000A128A150A200A128A11CF000A1201
:1002F2008A150A200A128A11D0000A128A150A20C7
:100302000A128A11D1000A128A150A200A128A11C7
:10031200D2005208B5005108B4005008B3004F088B
:10032200B2000A128A159F240A128A118312031339
:100332003108DA003008D9002F08D8002E08D7007B
:100342000A30F0000030F1005B08CC00CD014C080F
:10035200F2004D08F3000A168A15F0240A128A11D7
:10036200700883120313CE0001300310CE0DFF3E3E
:10037200031DB62903104E0D353E84000A128A155C
:100382000A200A128A11CF000A128A150A200A12BA
:100392008A11D0000A128A150A200A128A11D10083
:1003A2000A128A150A200A128A11D2005208B100D2
:1003B2005108B0005008AF004F08AE005A08B5000F
:1003C2005908B4005808B3005708B2000A128A1537
:1003D2009F240A128A11831203133108CB003008BA
:1003E200CA002F08C9002E08C8003A2A3F30B100BF
:1003F2000030B0000030AF000030AE005B08CC002F
:1004020001300310CC0DFF3E031D022A03104C0DD8
:10041200353E84000A128A150A200A128A11CD007A
:100422000A128A150A200A128A11CE000A128A15A5
:100432000A200A128A11CF000A128A150A200A1209
:100442008A11D0005008B5004F08B4004E08B3001E
:100452004D08B2000A128A159F240A128A118312C9
:1004620003133108CB003008CA002F08C9002E0838
:10047200C800080083160313C500A930AD002D087B
:10048200B600DC2F25304A060319482A492A552A84
:100492004A08AD00450884002D088313800001300E
:1004A200AD002D08C507DC2FB701B8015A2A38154F
:1004B200742A0130A807FF30280784000A128A151F
:1004C2000A200A128A11CA00AD00AE012E08003AB3
:1004D20003196C2ADC2F2D08003A0319EE2F663A15
:1004E2000319582ADC2F00303705AD0007303805D4
:1004F200AE002D082E0403197F2A802AC82F063049
:10050200B9000030BA003608840083130008C60020
:10051200840A0008C700840A0008C800840A000888
:10052200C9000430AD002D08B6074908F300480899
:10053200F2004708F1004608F0000030F7000030F2
:10054200F6000030F5000030F4000A168A11EE20A1
:100552000A128A110318AE2AAF2ACC2A8316031371
:100562004908F3004808F2004708F1004608F00085
:100572000A168A15F6230A128A11730883160313C0
:10058200C9007208C8007108C7007008C6000330AD
:10059200B7040030B80483160313BF01C001490831
:1005A200F3004808F2004708F1004608F000003066
:1005B200F7000030F6000030F5000030F4000A16B3
:1005C2008A15F2250A128A110318E82AE92AD92B78
:1005D200031083160313480D490D823EBF00FF30FE
:1005E20003180030C000FF30BF070318C00AFF30F5
:1005F200C0070330F0000030F1004008F3003F086C
:10060200F2000A168A1594240A128A1171088316B6
:100612000313C0007008BF000A30F7000030F80072
:100622004008FA003F08F9000A168A1109200A1246
:100632008A11780883160313C0007708BF00C01F11
:10064200232B242B2A2BFF30BF070318C00AFF30AD
:10065200C0073F03FF3A0A128A1540210A128A1183
:10066200831203134B0883160313C400831203136C
:100672004A0883160313C30083120313490883161F
:100682000313C20083120313480883160313C10025
:10069200490883120313B100831603134808831217
:1006A2000313B00083160313470883120313AF002A
:1006B20083160313460883120313AE008316031333
:1006C200440883120313B5008316031343088312ED
:1006D2000313B40083160313420883120313B300F7
:1006E20083160313410883120313B2000A128A15F8
:1006F2009F240A128A1183120313310883160313EB
:10070200C40083120313300883160313C300831239
:1007120003132F0883160313C200831203132E0838
:1007220083160313C1004408F3004308F200420891
:10073200F1004108F0003F30F7008030F600003051
:10074200F5000030F4000A168A11EE200A128A110E
:100752000318AC2BAD2BB62BFF3083160313BF0748
:100762000318C00AFF30C007D92B831603134408AD
:10077200F3004308F2004208F1004108F000413062
:10078200F7002030F6000030F5000030F4000A16C1
:100792008A11EE200A128A11031CD02BD12BD92BDD
:1007A200013083160313BF070318C00A0030C007C5
:1007B20006300A128A1130200A128A118312031398
:1007C2004B08DF004A08DE004908DD004808DC006B
:1007D20083160313490883120313E30083160313DA
:1007E200480883120313E200831603134708831297
:1007F2000313E10083160313460883120313E00078
:100802000A168A1178250A128A11831203135F08C5
:1008120083160313C900831203135E08831603139E
:10082200C800831203135D0883160313C7008312E3
:1008320003135C0883160313C6004008803AFF00C6
:1008420080307F02031D272C0A303F0203182A2C16
:100852002B2C7C2C831603134908F3004808F20062
:100862004708F1004608F0000030F7000030F600BB
:100872000030F5000030F4000A168A15F2250A123B
:100882008A110318452C462CEE2C831603134908B3
:1008920083120313DE008316031348088312031323
:1008A200DD0083160313470883120313DC0083164B
:1008B2000313460883120313DB000A168A117220FF
:1008C2000A128A11831203135E085D045C045B043E
:1008D200031D6C2C6D2CEE2C831603134008803AFA
:1008E200FF0080307F02031D782C02303F02031C80
:1008F2007B2C7C2CEE2C831603134408F300430854
:10090200F2004208F1004108F0004030F70089305F
:10091200F6007030F5005F30F4000A168A11EE20FE
:100922000A128A110318962C972CA02CF7308316E2
:100932000313BF070318C00AFF30C007A82CF83002
:1009420083160313BF070318C00AFF30C0073F080E
:100952000A128A1540210A128A11831203134B08C4
:1009620083160313C400831203134A088316031366
:10097200C30083120313490883160313C2008312B0
:100982000313480883160313C1004908F3004808FB
:10099200F2004708F1004608F0004408F700430857
:1009A200F6004208F5004108F4000A168A110923EC
:1009B2000A128A11730883160313BE007208BD005F
:1009C2007108BC007008BB000030C9000030C800CC
:1009D2000030C7000030C600702D8316031349088B
:1009E20083120313DE0083160313480883120313D2
:1009F200DD0083160313470883120313DC008316FA
:100A02000313460883120313DB000A168A117220AD
:100A12000A128A11831203135E0883160313BE009F
:100A2200831203135D0883160313BD00831203139D
:100A32005C0883160313BC00831203135B0883163E
:100A42000313BB003E0883120313A3008316031390
:100A52003D0883120313A200831603133C0883127A
:100A62000313A100831603133B0883120313A00090
:100A720000300A168A1190210A128A118312031376
:100A8200230883160313A300831203132208831679
:100A92000313A20083120313210883160313A10078
:100AA20083120313200883160313A0004908A7002A
:100AB2004808A6004708A5004608A4000A168A1599
:100AC20040260A128A11831603132308C90022083A
:100AD200C8002108C7002008C600BF01C001CA0122
:100AE200CA0A4A08AD0001300310AD0DFF3E031DD6
:100AF200752D03102D0D693E84000A128A150A20F5
:100B02000A128A11AE000A128A150A200A128A11E2
:100B1200AF000A128A150A200A128A11B0000A12BC
:100B22008A150A200A128A11B10031083E02031DF9
:100B3200A42D30083D02031DA42D2F083C02031DE5
:100B4200A42D2E083B020318A72DA82DA92DB32DE5
:100B52000130AD002D08CA070A304A06031DB22D26
:100B6200B32D722D03303705AD0000303805AE00CD
:100B72002D082E040319BE2DBF2D312E2D30AD00B0
:100B8200450884002D08831380000130AD002D0834
:100B9200C507312E4A08AD0001300310AD0DFF3EEE
:100BA200031DCE2D03102D0D693E84000A128A15F5
:100BB2000A200A128A11F0000A128A150A200A1261
:100BC2008A11F1000A128A150A200A128A11F20009
:100BD2000A128A150A200A128A11F3003E08F70047
:100BE2003D08F6003C08F5003B08F4000A168A1599
:100BF2009A270A128A11730883160313C400720813
:100C0200C3007108C2007008C1000030F300003058
:100C1200F2000030F1000A30F0004408F700430807
:100C2200F6004208F5004108F4000A168A159026DB
:100C32000A128A11730883160313C4007208C300D0
:100C42007108C2007008C1004108303EAD0045087D
:100C520084002D08831380000130AD002D08C507E4
:100C62000130CA024A0A031D372E382ECB2D4C2ED4
:100C7200303083160313AD00450884002D0883131A
:100C820080000130AD002D08C507FF30BF070318F3
:100C9200C00AFF30C0074008803AFF0080307F0260
:100CA200031D552E01303F020318582E592E392E9E
:100CB200831603133A08803AFF0080307F02031D37
:100CC200642E09303902031C672E682E6F2E0830FD
:100CD20083160313AD002D08CA00752E8316031365
:100CE2003908AD002D08CA004A08AD00AE012D0832
:100CF200B9022E08031CBA03BA024A080319822E4B
:100D0200832E8E2E2E30AD00450884002D088313CD
:100D120080000130AD002D08C5074A080A128A1565
:100D220040210A128A11831203134B0883160313FC
:100D3200B500831203134A0883160313B400831207
:100D42000313490883160313B300831203134808DD
:100D520083160313B200350883120313B5008316FA
:100D62000313340883120313B400831603133308E6
:100D720083120313B300831603133208831203137F
:100D8200B20083160313490883120313B1008316BA
:100D92000313480883120313B00083160313470892
:100DA20083120313AF00831603134608831203133F
:100DB200AE000A128A159F240A128A1183120313A3
:100DC2003108DE003008DD002F08DC002E08DB00D1
:100DD2000A168A1172200A128A11831203135E08FC
:100DE20083160313BE00831203135D0883160313D5
:100DF200BD00831203135C0883160313BC00831225
:100E020003135B0883160313BB00A82F4A08AD0027
:100E120001300310AD0DFF3E031D0A2F03102D0DEF
:100E2200693E84000A128A150A200A128A11F00009
:100E32000A128A150A200A128A11F1000A128A1568
:100E42000A200A128A11F2000A128A150A200A12CC
:100E52008A11F3003E08F7003D08F6003C08F50051
:100E62003B08F4000A168A159A270A128A11730897
:100E720083160313C4007208C3007108C20070080D
:100E8200C1000030F3000030F2000030F1000A30FF
:100E9200F0004408F7004308F6004208F500410854
:100EA200F4000A168A1590260A128A11730883160C
:100EB2000313C4007208C3007108C2007008C100A5
:100EC2004108303EAD00450884002D0883138000A0
:100ED2000130AD002D08C5074A08AD0001300310EE
:100EE200AD0DFF3E031D702F03102D0D693E8400D2
:100EF2000A128A150A200A128A11F0000A128A15A9
:100F02000A200A128A11F1000A128A150A200A120C
:100F12008A11F2000A128A150A200A128A11F300B3
:100F22003E08F7003D08F6003C08F5003B08F400D7
:100F32000A168A1590260A128A1173088316031359
:100F4200BE007208BD007108BC007008BB00013011
:100F5200CA024A0A031DAE2FAF2F072FC12F30300E
:100F6200AD00450884002D08831380000130AD00D8
:100F72002D08C507FF30B9070318BA0AFF30BA07B0
:100F820039083A04031DC62FC72FB02FDC2F0330B8
:100F92003705AD0000303805AE002D082E040319C8
:100FA200D32FD42FDC2F2D30AD00450884002D081F
:100FB20083138000502A0130A807FF3028078400DD
:100FC2000A128A150A200A128A11AD002D08CA00D7
:100FD2004A08031DED2FEE2F432A45088400831390
:100FE200800108008313CF308400ED300A168A1185
:100FF20001200A128A1183010A168A11C72BFF1BCC
:101002000A2883137F1883170008840A0319FF0A2A
:10101200080008308A000408840A82070034003479
:10102200003480343F3400340034203441340034FE
:101032000034C8344234003400347A344434003446
:1010420040341C34463400345034C3344734003402
:101052002434743449348034963418344B34203474
:10106200BC34BE344C3428346B346E344E34F934D0
:10107200023415345034EC347834AD346034CA342C
:10108200F234493471340034003480343F34CD3486
:10109200CC34CC343D340A34D73423343C346F342A
:1010A200123483343A341734B734D1343834AC344C
:1010B200C53427343734BD34373486343534953427
:1010C200BF34D63433347734CC342B3432345F34B7
:1010D200703489343034FF34E634DB342E3408344F
:1010E200E5343C341E3460344234A2340D340134CD
:1010F2000034003400340A340034003400346434E0
:10110200003400340034E834033400340034103442
:10111200273400340034A03486340134003440349F
:1011220042340F340034803496349834003400341E
:10113200E134F53405340034CA349A343B34203473
:1011420020342034203420342034203420342034FD
:10115200203420342034203420342034203400340D
:101162004E344834493445345434203444344F34B2
:101172002034433441344F3421340A340D340034A2
:101182004E344834493445345434203444344F3492
:1011920020343D342034253466340A340D3400348E
:1011A2004E344834493445345434203444344F3472
:1011B2002034433441344F34213400344D346134CB
:1011C200633468342034423461346F34203443341D
:0811D200683461347934003403
:1011DC00F7007703031DF328F428172974087F3EC2
:1011EC00F5007508FA007A08F50004300310F50CC8
:1011FC00FF3E031DFC287508F6007608F8007A08F7
:10120C000F39F5007508F90078080A168A15582464
:10121C000A128A1579080A168A1558240A128A1590
:10122C003F2902307706031D1C291D293F2974080C
:10123C00BF3EF5007508FA007A08F500043003107B
:10124C00F50CFF3E031D25297508F6007608F800FD
:10125C007A080F39F5007508F90078080A168A150E
:10126C0058240A128A1579080A168A1558240A1263
:10127C008A15080083120313DA00DA1F462947295E
:10128C00F42ADA09DA0A5A08803A123E031C4F296A
:10129C005029382A0A30F7000030F8005A08F200BA
:1012AC00F301F21BF3036430F0000030F1000A1676
:1012BC008A15E4260A128A157108FA007008F900DA
:1012CC000A168A1109200A128A1577088312031349
:1012DC00CC0001300310CC0DFF3E031D7029031010
:1012EC004C0D593E84000A128A150A200A128A15DE
:1012FC00CD000A128A150A200A128A15CE000A128B
:10130C008A150A200A128A15CF000A128A150A2099
:10131C000A128A15D0005008B1004F08B0004E08D0
:10132C00AF004D08AE006430F7000030F8005A08EA
:10133C00F900FA01F91BFA030A168A1109200A129C
:10134C008A15770883120313D10001300310D10DD5
:10135C00FF3E031DAC290310510D7D3E84000A1283
:10136C008A150A200A128A15D2000A128A150A2036
:10137C000A128A15D3000A128A150A200A128A1533
:10138C00D4000A128A150A200A128A15D5005508AB
:10139C00B5005408B4005308B3005208B2000A1246
:1013AC008A159F240A128A15831203133108D90057
:1013BC003008D8002F08D7002E08D6000A30F000CD
:1013CC000030F1005A08F200F301F21BF3030A1685
:1013DC008A15E4260A128A15700883120313CC00AE
:1013EC0001300310CC0DFF3E031DF72903104C0DEB
:1013FC00353E84000A128A150A200A128A15CD007D
:10140C000A128A150A200A128A15CE000A128A15A7
:10141C000A200A128A15CF000A128A150A200A120B
:10142C008A15D0005008B1004F08B0004E08AF002C
:10143C004D08AE005908B5005808B4005708B30061
:10144C005608B2000A128A159F240A128A158312B2
:10145C0003133108CB003008CA002F08C9002E082E
:10146C00C8009E2C5A08803A753E031C3E2A3F2A1F
:10147C00C72A0A30F0000030F1005A08F200F301DC
:10148C00F21BF3030A168A15E4260A128A15700851
:10149C0083120313CC0001300310CC0DFF3E031D4F
:1014AC00522A03104C0D353E84000A128A150A206C
:1014BC000A128A15CD000A128A150A200A128A15F8
:1014CC00CE000A128A150A200A128A15CF000A12B7
:1014DC008A150A200A128A15D0005008B1004F084C
:1014EC00B0004E08AF004D08AE000A30F7000030D7
:1014FC00F8005A08F900FA01F91BFA030A168A11C6
:10150C0009200A128A15770883120313D1000130BF
:10151C000310D10DFF3E031D8E2A0310510D593EB1
:10152C0084000A128A150A200A128A15D2000A129D
:10153C008A150A200A128A15D3000A128A150A2063
:10154C000A128A15D4000A128A150A200A128A1560
:10155C00D5005508B5005408B4005308B300520820
:10156C00B2000A128A159F240A128A1583120313D9
:10157C003108CB003008CA002F08C9002E08C8005B
:10158C009E2C5A08CC0001300310CC0DFF3E031DDD
:10159C00CA2A03104C0D353E84000A128A150A2003
:1015AC000A128A15CD000A128A150A200A128A1507
:1015BC00CE000A128A150A200A128A15CF000A12C6
:1015CC008A150A200A128A15D0005008CB004F0841
:1015DC00CA004E08C9004D08C8009E2C5A08803A13
:1015EC00123E031CFA2AFB2AE32B0A30F7000030C8
:1015FC00F8005A08F200F301F21BF3036430F00018
:10160C000030F1000A168A15E4260A128A157108B0
:10161C00FA007008F9000A168A1109200A128A15B4
:10162C00770883120313CC0001300310CC0DFF3E5E
:10163C00031D1B2B03104C0D253E84000A128A152A
:10164C000A200A128A15CD000A128A150A200A12DB
:10165C008A15CE000A128A150A200A128A15CF00A2
:10166C000A128A150A200A128A15D0005008B100F5
:10167C004F08B0004E08AF004D08AE006430F700C4
:10168C000030F8005A08F900FA01F91BFA030A169F
:10169C008A1109200A128A15770883120313D100C4
:1016AC0001300310D10DFF3E031D572B0310510DBC
:1016BC00493E84000A128A150A200A128A15D200A1
:1016CC000A128A150A200A128A15D3000A128A15E0
:1016DC000A200A128A15D4000A128A150A200A1244
:1016EC008A15D5005508B5005408B4005308B3004A
:1016FC005208B2000A128A159F240A128A15831204
:10170C0003133108D9003008D8002F08D7002E0851
:10171C00D6000A30F0000030F1005A08F200F30154
:10172C00F21BF3030A168A15E4260A128A157008AE
:10173C0083120313CC0001300310CC0DFF3E031DAC
:10174C00A22B03104C0D013E84000A128A150A20AC
:10175C000A128A15CD000A128A150A200A128A1555
:10176C00CE000A128A150A200A128A15CF000A1214
:10177C008A150A200A128A15D0005008B1004F08A9
:10178C00B0004E08AF004D08AE005908B50058081F
:10179C00B4005708B3005608B2000A128A159F24E9
:1017AC000A128A15831203133108CB003008CA00C1
:1017BC002F08C9002E08C8009E2C5A08803A753E86
:1017CC00031CE92BEA2B722C0A30F0000030F100DC
:1017DC005A08F200F301F21BF3030A168A15E426E9
:1017EC000A128A15700883120313CC0001300310FF
:1017FC00CC0DFF3E031DFD2B03104C0D013E840050
:10180C000A128A150A200A128A15CD000A128A15A4
:10181C000A200A128A15CE000A128A150A200A1208
:10182C008A15CF000A128A150A200A128A15D000CE
:10183C005008B1004F08B0004E08AF004D08AE0084
:10184C000A30F7000030F8005A08F900FA01F91BC9
:10185C00FA030A168A1109200A128A1577088312CC
:10186C000313D10001300310D10DFF3E031D392CA1
:10187C000310510D253E84000A128A150A200A1203
:10188C008A15D2000A128A150A200A128A15D30068
:10189C000A128A150A200A128A15D4000A128A150D
:1018AC000A200A128A15D5005508B5005408B40050
:1018BC005308B3005208B2000A128A159F240A1268
:1018CC008A15831203133108CB003008CA002F0885
:1018DC00C9002E08C8009E2C5A08CC0001300310F9
:1018EC00CC0DFF3E031D752C03104C0D013E8400E6
:1018FC000A128A150A200A128A15CD000A128A15B4
:10190C000A200A128A15CE000A128A150A200A1217
:10191C008A15CF000A128A150A200A128A15D000DD
:10192C005008CB004F08CA004E08C9004D08C8002B
:10193C0008008312031331088039B6003608BB0047
:10194C003108B6003607B7003708C100B01FAF2CFE
:10195C00B02CB12C411441080319B52CB62CC52C54
:10196C00410A031DBA2CBB2CC32C0030B100003033
:10197C00B0000030AF000030AE00B017CD2C0030FE
:10198C00B1000030B0000030AF000030AE003508C0
:10199C008039B6003608BB063508B6003607B700E6
:1019AC003708C000B41FDB2CDC2CDD2C40144008A5
:1019BC000319E12CE22CF12C400A031DE62CE72C38
:1019CC00EF2C0030B5000030B4000030B300003014
:1019DC00B200B417F92C0030B5000030B400003060
:1019EC00B3000030B20040080319FD2CFE2C032D6F
:1019FC004108031D022D032D0C2D0030B1000030C9
:101A0C00B0000030AF000030AE00FF2F2E08B60043
:101A1C003608F00034080A128A1109200A128A15B5
:101A2C00710883120313C7007008C6004608B6007D
:101A3C00B701B801B9013908BF003808BE00370832
:101A4C00BD003608BC004708B600B701B801B901A3
:101A5C003908C5003808C4003708C3003608C2006E
:101A6C002F08B6003608F00033080A128A11092034
:101A7C000A128A15710883120313C7007008C60076
:101A8C004608B600B701B801B9013608BC073708DB
:101A9C0003110318013E0319542DBD073808031117
:101AAC000318013E03195B2DBE07390803110318F7
:101ABC00013E0319622DBF074708B600B701B801F4
:101ACC00B9013608C207370803110318013E031980
:101ADC00702DC307380803110318013E0319772D25
:101AEC00C407390803110318013E03197E2DC507DD
:101AFC003008B6003608F00032080A128A110920A4
:101B0C000A128A15710883120313C7007008C600E5
:101B1C004608B600B701B801B9013608BC0737084A
:101B2C0003110318013E03199C2DBD07380803113E
:101B3C000318013E0319A32DBE073908031103181E
:101B4C00013E0319AA2DBF074708B600B701B8011B
:101B5C00B9013608C207370803110318013E0319EF
:101B6C00B82DC307380803110318013E0319BF2D04
:101B7C00C407390803110318013E0319C62DC50704
:101B8C000830B6000310BC0DBD0DBE0DBF0DB60B5D
:101B9C00C82D2F08B6003608F00032080A128A1138
:101BAC0009200A128A15710883120313C7007008E2
:101BBC00C6004608B6004708B700B801B901360898
:101BCC00BC07370803110318013E0319EE2DBD079E
:101BDC00380803110318013E0319F52DBE07390807
:101BEC0003110318013E0319FC2DBF072E08B60084
:101BFC003608F00033080A128A1109200A128A15D5
:101C0C00710883120313C7007008C6004608B6009B
:101C1C004708B700B801B9013608BC0737080311EB
:101C2C000318013E03191B2EBD07380803110318B6
:101C3C00013E0319222EBE07390803110318013E79
:101C4C000319292EBF070830B6000310BC0DBD0DBB
:101C5C00BE0DBF0DB60B2B2E2E08B6003608F000AD
:101C6C0032080A128A1109200A128A157108831285
:101C7C000313C7007008C6004608B6004708B70033
:101C8C00B801B9013608BC07370803110318013E27
:101C9C000319512EBD07380803110318013E03190F
:101CAC00582EBE07390803110318013E03195F2E85
:101CBC00BF072F08B6003608F00034080A128A1144
:101CCC0009200A128A15710883120313C7007008C1
:101CDC00C6004608B6004708B700B801B901360877
:101CEC00C207370803110318013E03197E2EC307E0
:101CFC00380803110318013E0319852EC40739084F
:101D0C0003110318013E03198C2EC5073008B600C9
:101D1C003608F00033080A128A1109200A128A15B3
:101D2C00710883120313C7007008C6004608B6007A
:101D3C004708B700B801B9013608C20737080311C4
:101D4C000318013E0319AB2EC307380803110318FF
:101D5C00013E0319B22EC407390803110318013EC2
:101D6C000319B92EC5073008B6003608F000340840
:101D7C000A128A1109200A128A1571088312031398
:101D8C00C7007008C6004608B6004708B700B8017F
:101D9C00B90108300310B60DB70DB80DB90DFF3EE3
:101DAC00031DD02E3608C207370803110318013E55
:101DBC000319E12EC307380803110318013E031958
:101DCC00E82EC407390803110318013E0319EF2E3E
:101DDC00C5073C08B6003D08B7003E08B8003F08F0
:101DEC00B90018300310B90CB80CB70CB60CFF3E88
:101DFC00031DF82E3608C207370803110318013EDD
:101E0C000319092FC307380803110318013E0319DE
:101E1C00102FC407390803110318013E0319172F9B
:101E2C00C5070830B6000310BC0DBD0DBE0DBF0DAF
:101E3C00B60B192F41084007B600B701B70D36088D
:101E4C00823EC60037080318013EFF3EC7004B2FE9
:101E5C000130B6000310C20DC30DC40DC50DB60B79
:101E6C00302FBF1F3A2F3B2F3C2F42140130B600AE
:101E7C000310BC0DBD0DBE0DBF0DB60B3E2FFF30BC
:101E8C00C6070318C70AFF30C707C41F4E2F4F2FB2
:101E9C002E2FC001BF1F532F542F702FFF303C0526
:101EAC00B600FF303D05B700FF303E05B8007F306F
:101EBC003F05B90039083804370436040319672F75
:101ECC00682F6B2FC001C00A702F421C6E2F6F2F12
:101EDC00702F682F40080319742F752FA62F01300F
:101EEC00C207003003180130C3070030031801305B
:101EFC00C407003003180130C507451C862F872FF7
:101F0C00A62F4208B6004308B7004408B80045089D
:101F1C00B9000130BA00390DB90CB80CB70CB60CBD
:101F2C00BA0B912F3908C5003808C4003708C30014
:101F3C003608C2000130C6070318C70A0030C707AD
:101F4C004708803AFF0080307F02031DAF2FFF301F
:101F5C004602031CB22FB32FBE2F7F308312031304
:101F6C00C5008030C4000030C3000030C200F32F25
:101F7C00831203134708803AFF0080307F02031D51
:101F8C00C92F013046020318CC2FCD2FD92F00308A
:101F9C0083120313C5000030C4000030C3000030AE
:101FAC00C200BB01F32F831203134608B600360898
:101FBC00C100FF30C205FF30C3057F30C4050030BF
:101FCC00C505411CEA2FEB2FEC2FC4174108B600B6
:101FDC000310360CB7003708C5003B08B6003608AE
:101FEC00C5044508B1004408B0004308AF004208DE
:041FFC00AE0008002B
:1020020064008001840A04060319003404060228CD
:1020120083120313A101F81F0F2810281728F709AC
:10202200F809F70A0319F80AA101A10AFA1F1A28E6
:102032001B282428F909FA09F90A0319FA0A0130B6
:10204200FB007B08A106A201A3017708780403190B
:102052002B282C286328A001A00A3A28013003105B
:10206200F70DF80DFF3E031D30280130FB007B0801
:10207200A007F81F3D283E282F2801300310A20D8B
:10208200A30DFF3E031D3F2878087A02031D4B284B
:1020920077087902031C4E284F2856287708F90240
:1020A2007808031CFA03FA02221401300310F80C18
:1020B200F70CFF3E031D57280130A002031D6228C2
:1020C20063283E2821080319672868286D28A20979
:1020D200A309A20A0319A30A2308F8002208F70099
:1020E20008000310831203135D0D5E0DDF005F080D
:1020F200E5006508031D7E287F2888280030DE0061
:102102000030DD000030DC000030DB00ED285B0831
:10211200DF005C08E0005D08E1005E08E2001F30BD
:102122000310E20CE10CE00CDF0CFF3E031D9128D2
:102132005F08E3006308E400DD17FF30DB05FF30D2
:10214200DC05FF30DD050030DE059630E502E51FD7
:10215200AB28AC28C6286508803A973E0318B228F7
:10216200B328B4287F2801300310DE0CDD0CDC0C10
:10217200DB0CFF3E031DB5280130DF005F08E507D9
:10218200031DC428C528B428DD2820306502031C9D
:10219200CB28CC28D8287F280130DF000310DB0DA4
:1021A200DC0DDD0DDE0DDF0BCF280130E502650809
:1021B200031DDC28DD28CD2864080319E128E22864
:1021C200ED28DB09DC09DD09DE09DB0A0319DC0A7B
:1021D2000319DD0A0319DE0A080000307005F80051
:1021E20000307105F90080307205FA007F30730506
:1021F200FB007B087A0479047804031D0129022973
:102202000A290030F3000030F2000030F100003003
:10221200F00000307405F80000307505F9008030D8
:102222007605FA007F307705FB007B087A04790493
:102232007804031D1D291E2926290030F7000030CD
:10224200F6000030F5000030F400F31F29292A2996
:102252004E290030F8000030F9000030FA008030DA
:10226200FB007008F8027108031C710F39293A2922
:10227200F9027208031C720F3F294029FA027308FF
:10228200031C730F45294629FB027B08F3007A08D9
:10229200F2007908F1007808F000F71F512952295D
:1022A20076290030F8000030F9000030FA00803062
:1022B200FB007408F8027508031C750F6129622976
:1022C200F9027608031C760F67296829FA02770853
:1022D200031C770F6D296E29FB027B08F7007A0831
:1022E200F6007908F5007808F4008030F3068030B3
:1022F200F70677087302031D882976087202031D08
:10230200882975087102031D882974087002031850
:102312008B298C298E2903108F290314080083121C
:102322000313A8002808031997299829AC29A31F89
:102332009B299C29AC292009AA002109AB0022096A
:10234200AC002309AD00AA0A0319AB0A0319AC0AAF
:102352000319AD0AB4292308AD002208AC002108F4
:10236200AB002008AA002308220421042004031D34
:10237200BB29BC29C5290030A3000030A2000030CF
:10238200A1000030A0004B2A9630A4002408A90026
:10239200D7290130A4002408A90701300310AD0C8D
:1023A200AC0CAB0CAA0CFF3E031DCF29FE302D0551
:1023B200031DDC29DD29CA29F9290130A4002408DA
:1023C200A9070130AA07003003180130AB0700301B
:1023D20003180130AC07003003180130AD0701309B
:1023E2000310AD0CAC0CAB0CAA0CFF3E031DF12983
:1023F200FF302D05031DFE29FF29DE290B2A01309E
:10240200A9020130A4000310AA0DAB0DAC0DAD0D55
:10241200A40B042AAC1B0E2A0F2A152A0230290209
:102422000318142A152A002A2918182A192A212AD7
:10243200FF30AA05FF30AB057F30AC05FF30AD059C
:102442000310A90C2908A400A501A601A7011830B0
:102452000310A40DA50DA60DA70DFF3E031D292AED
:102462002408AA042508AB042608AC042708AD04F6
:10247200280803193D2A3E2A432AA31F412A422A39
:10248200432AAD172D08A3002C08A2002B08A10097
:102492002A08A00008007008F8007108F900720804
:1024A200FA000310790D7A0DFB007B0883120313E7
:1024B200A5002508031D5E2A5F2A682A0030F30062
:1024C2000030F2000030F1000030F000082B7408F8
:1024D200F8007508F9007608FA000310790D7A0DF4
:1024E200FB007B08A4002408031D782A792A7A2A93
:1024F2005F2AF117FF30F005FF30F1050030F205D9
:10250200F517FF30F405FF30F5050030F605003011
:10251200A3000030A2000030A1000030A0007F30F4
:10252200A50298302407F8007808A5021830F800B0
:102532007808A4000130F8000310A00DA10DA20D2F
:10254200A30DF80B9D2A76087202031DAE2A7508A8
:102552007102031DAE2A74087002031CB12AB22A4A
:10256200BD2A7408F0027508031C750FF102760883
:10257200031C760AF202201401300310F00DF10D53
:10258200F20DFF3E031DBE2A0130A402031DCA2A1A
:10259200CB2A9B2AA51FCE2ACF2AE92A2508803AD0
:1025A200973E0318D52AD62AD72A5F2A013003106C
:1025B200A30CA20CA10CA00CFF3E031DD82A0130D3
:1025C200F8007808A507031DE72AE82AD72A002B76
:1025D20018302502031CEE2AEF2AFB2A5F2A01305B
:1025E200F8000310A00DA10DA20DA30DF80BF22A05
:1025F2000130A5022508031DFF2A002BF02A23081B
:10260200F3002208F2002108F1002008F00008007F
:102612000310720D730DF800780883120313A500DE
:102622002508031D152B162B1F2B0030F30000303D
:10263200F2000030F1000030F000C62B0310760DDE
:10264200770DF8007808A4002408031D292B2A2BF3
:102652002B2B162BF217FF30F005FF30F105FF3060
:10266200F2050030F305F617FF30F405FF30F505EB
:10267200FF30F6050030F7050030A3000030A2005D
:102682000030A1000030A0007F30A502A030240756
:10269200F8007808A5022030F8007808A40001307C
:1026A200F8000310A00DA10DA20DA30DF80B522BE3
:1026B20077087302031D672B76087202031D672BCE
:1026C20075087102031D672B74087002031C6A2BC4
:1026D2006B2B7A2B7408F0027508031C750FF1023C
:1026E2007608031C760FF2027708031C770FF302B9
:1026F20020140130F8000310F00DF10DF20DF30D6E
:10270200F80B7C2B0130A402031D882B892B502B44
:10271200A51F8C2B8D2BA72B2508803A9F3E0318D3
:10272200932B942B952B162B01300310A30CA20C88
:10273200A10CA00CFF3E031D962B0130F800780877
:10274200A507031DA52BA62B952BBE2B20302502FA
:10275200031CAC2BAD2BB92B162B0130F800031048
:10276200A00DA10DA20DA30DF80BB02B0130A502F7
:102772002508031DBD2BBE2BAE2B2308F300220818
:10278200F2002108F1002008F00008000A168A155C
:102792002C240A168A110030F3000030F200253092
:1027A200F1008030F0000A168A1541240A168A11B7
:1027B20083120313051483160313051406148610DB
:1027C2000611861188010A168A153D270A168A11F2
:1027D200F401F40A01300A128A15EE200A168A114F
:1027E200D030F5008030F6000A168A152A250A161E
:1027F2008A11063083160313CD001330CC00AD309E
:10280200CB00CB0B022CCC0B022CCD0B022C0A16CC
:102812008A150D240A168A118312031386100611D3
:1028220086110A168A151A240A168A117108831645
:102832000313EC007008EB006B0883120313A00073
:10284200831603136C0883120313A100A201A301D0
:1028520000300A168A1190210A168A118312031374
:102862002308B5002208B4002108B3002008B200F2
:102872004030B1009C30B0006730AF001A30AE007B
:102882000A128A159F240A168A1183120313310829
:10289200DE003008DD002F08DC002E08DB000A16FF
:1028A2008A1172200A168A11831203135C08831696
:1028B2000313D600831203135B0883160313D50098
:1028C2005608F9005508F8000A30F6000030F70003
:1028D2000A168A15AE250A168A117608831603137C
:1028E200CB007708CC00CD01CE014E088312031332
:1028F200A300831603134D0883120313A200831649
:1029020003134C0883120313A100831603134B080D
:1029120083120313A00000300A168A1190210A16AE
:102922008A1183120313230883160313D20083121E
:102932000313220883160313D10083120313210801
:1029420083160313D0008312031320088316031384
:10295200CF00B230CB004B08A8005208AC0051089F
:10296200AB005008AA004F08A900D7300A128A11FA
:102972003B220A168A11831603135208F3005108E8
:10298200F2005008F1004F08F0000030F70000306C
:10299200F6000030F5000030F4000A168A15F22520
:1029A2000A168A110318D62CD72CE02CD730F10046
:1029B2000030F2000A168A156C250A168A11F401F3
:1029C200F40A02300A128A15EE200A168A11D7304A
:1029D200F5000030F6000A168A152A250A168A1111
:1029E200063083160313CD001330CC00AD30CB007C
:1029F200CB0BF92CCC0BF92CCD0BF92C8316031332
:102A020053085404031D062D072D1E2D1A3083165C
:102A12000313CD005E30CC006D30CB00CB0B0F2DFD
:102A2200CC0B0F2DCD0B0F2D162D0130831603135A
:102A3200D3070318D40A0030D4074230F3006C30B5
:102A4200F2000030F1000030F0005208F7005108A7
:102A5200F6005008F5004F08F4000A168A11EE201D
:102A62000A168A110318362D372D0D2C83120313E3
:102A720086140615A230F1008030F2000A168A157B
:102A82006C250A168A11F401F40A01300A128A1519
:102A9200EE200A168A11C230F5008030F6000A16BE
:102AA2008A152A250A168A11063083160313CD00C9
:102AB2001330CC00AD30CB00CB0B5D2DCC0B5D2D9C
:102AC200CD0B5D2DF401F40A01300A128A15EE20B5
:102AD2000A168A119130F5008030F6000A168A151E
:102AE2002A250A168A110D2C0A128A11002883122D
:102AF20003135F088039E4006408EC005F08E40017
:102B02006407E5006508EE00DE1F882D892D8A2DF9
:102B12006E146E0803198E2D8F2D9F2D6E0A031DC4
:102B2200932D942D9C2D0030DF000030DE0000300C
:102B3200DD000030DC00DE17DF01A72D0030DF00F2
:102B42000030DE000030DD000030DC006308803938
:102B5200E4006408ED006D086C060319B12DB22D76
:102B6200B32D6C176308E4006407E5006508ED0007
:102B7200E21FBC2DBD2DBE2D6D146D080319C22D93
:102B8200C32DD32D6D0A031DC72DC82DD02D0030A6
:102B9200E3000030E2000030E1000030E000E21724
:102BA200E301DB2D0030E3000030E2000030E10001
:102BB2000030E0006E086D020318E02DE12D252E95
:102BC2006C1FE42DE52DE92D8030E4006408EC064D
:102BD2006E08E4006408EF006D08E4006408EE008B
:102BE2006F08E4006408ED005C08E4006408EF008C
:102BF2006008E4006408DC006F08E4006408E00098
:102C02005D08E4006408EF006108E4006408DD0088
:102C12006F08E4006408E1005E08E4006408EF0065
:102C22006208E4006408DE006F08E4006408E20061
:102C32005F08E4006408EF006308E4006408DF0052
:102C42006F08E4006408E300EF016D08E400E501A9
:102C52006508E7006E086402E600031CE7036708E4
:102C6200803AFF0080307F02031D392E1A3066023F
:102C7200031C3C2E3D2E7A2E831203135F085E0442
:102C82005D045C04031D462E482E0130492E00309F
:102C9200E4006408EF000030DF000030DE000030A6
:102CA200DD000030DC006D08E4006408EE00822ED6
:102CB2006F1C5C2E5D2E662E6F08E4000310640C00
:102CC2000138E5006508EF00682E0310EF0C5C1C6C
:102CD2006B2E6C2E6D2EEF170130E4005F0DDF0CB2
:102CE200DE0CDD0CDC0CE40B6F2E0130E40064081A
:102CF200EE07831203136D086E02031C812E822ECF
:102D0200592E6C1B852E862ED12E6E08031D8A2EFF
:102D12008B2E942E0030DF000030DE000030DD000C
:102D22000030DC00FF2F6008DC0761080311031884
:102D3200013E03199D2EDD07620803110318013EAF
:102D42000319A42EDE07630803110318013E0319B9
:102D5200AB2EDF075F1CAE2EAF2E852F6F1CB22E5F
:102D6200B32EBC2E6F08E4000310640C0138E5009A
:102D72006508EF00BE2E0310EF0C5C1CC12EC22EA4
:102D8200C32EEF170130E4005F0DDF0CDE0CDD0C0B
:102D9200DC0CE40BC52E0130E4006408EE07852F3D
:102DA2005F08803AFF006308803A7F02031DE32E2A
:102DB20062085E02031DE32E61085D02031DE32E1D
:102DC20060085C020318E62EE72E3F2FFF30E40076
:102DD200FF30E500FF30E600FF30E7006008E80062
:102DE2006108E9006208EA006308EB005C08E80297
:102DF2005D08031C5D0FFE2EFF2EE9025E08031C18
:102E02005E0F042F052FEA025F08031C5F0F0A2FD3
:102E12000B2FEB026808E40769080318690F122FE9
:102E2200132FE5076A0803186A0F182F192FE607F0
:102E32006B0803186B0AE7076708DF006608DE0005
:102E42006508DD006408DC008030E4006408EC06FC
:102E5200EF09EF0A6F08031D2F2F302F4D2F01307E
:102E6200DC07003003180130DD07003003180130A1
:102E7200DE07003003180130DF074D2F6008DC0247
:102E82006108031C610FDD026208031C620FDE028F
:102E92006308031C630FDF025F085E045D045C04C9
:102EA200031D542F552F812F6F08031D592F5A2FA1
:102EB200812F0030DF000030DE000030DD00003006
:102EC200DC00FF2F0130E4000310DC0DDD0DDE0D10
:102ED200DF0DE40B652FEF1F6F2F702F712F5C1426
:102EE2006F1C742F752F782F0314EF0D7A2F031098
:102EF200EF0D6E0803197E2F7F2F812F0130EE0216
:102F0200DE1F842F852F632FED01EF1F892F8A2F5C
:102F1200982F6F087F3903198F2F902F932FED0170
:102F2200ED0A982F5C1C962F972F982F902F6D08E3
:102F320003199C2F9D2FD12F0130DC07003003187D
:102F42000130DD07003003180130DE0700300318BE
:102F52000130DF075F1CAE2FAF2FD12F5C08E400DA
:102F62005D08E5005E08E6005F08E7000130E80062
:102F7200670DE70CE60CE50CE40CE80BB92F6708CB
:102F8200DF006608DE006508DD006408DC006E0A0A
:102F92000319CC2FCD2FD12F0130E4006408EE07A6
:102FA2006E0A0319D52FD62FDB2F6E08031DDA2FD9
:102FB200DB2FE92F0030DF000030DE000030DD00C3
:102FC2000030DC006E08031DE72FE82FE92FEC012B
:102FD2006E1CEC2FED2FEF2FDE17F32F7F30E40066
:102FE2006408DE056E08E4000310640CE500650861
:0E2FF200DF00EC1FFD2FFE2FFF2FDF17080062
:1037EC0073087204710470040319FD2BFE2B002C5A
:1037FC008030F3060800F00083160313981C072C86
:10380C00082C022C70088312031399000800003056
:10381C000A168A1558240A168A1501300A168A15B2
:10382C0058240A168A150800831203131F151F1932
:10383C00202C212C1D2C1E08F300831603131E08AC
:10384C00F2007308F1007208F000080083160313ED
:10385C001F13831203139F131F179F121F129F1105
:10386C00831603139F179F151F159F141F10831288
:10387C0003131F140800831603131815193099002D
:10388C00181283120313981783160313071787173D
:10389C009816831203131816831603138C160B1722
:1038AC008B170800F30083120313081173080A1610
:1038BC008A1572240A168A1583120313881506308A
:1038CC00F2003030F100F10B692CF20B692C000086
:1038DC008312031388110800F000701C762C772CCF
:1038EC007B2C8312031308167E2C831203130812ED
:1038FC00F01C812C822C842C8816852C8812701D2F
:10390C00882C892C8B2C08178C2C0813F01D8F2CD1
:10391C00902C922C8817932C88130800F401F50135
:10392C00701C992C9A2CA02C7208F4070318F50A19
:10393C007308F50701300310F20DF30DFF3E031D64
:10394C00A12C01300310F10CF00CFF3E031DA82C30
:10395C0070087104031DB32CB42C962C7508F1005F
:10396C007408F0000800F40074080F39F1007108B5
:10397C00F2007408F039F1007108F300831203139C
:10398C0008157308F10004300310F10CFF3E031D01
:10399C00CA2C71080A168A1572240A168A15831203
:1039AC00031388150D30F100F10BDA2C831203137D
:1039BC00881172080A168A1572240A168A1583123F
:1039CC00031388150D30F100F10BEA2C831203134D
:1039DC0088110800700871040319F52CF62C252D9C
:1039EC00F501F50A042D01300310F00DF10DFF3E29
:1039FC00031DFA2C0130F4007408F507F11F072D94
:103A0C00082DF92C71087302031D0E2D700872021B
:103A1C00031C112D122D182D7008F2027108031CB5
:103A2C00F303F30201300310F10CF00CFF3E031D05
:103A3C00192D0130F502031D242D252D082D730899
:103A4C00F1007208F0000800FA01FB014F2D7A0812
:103A5C007507F8007608F7000318F70AFA1F372DD8
:103A6C00F7037708F900790883120313FF0078082D
:103A7C0084000A128A1500200A168A150A168A155D
:103A8C00B9240A168A150130FA070318FB0A00300C
:103A9C00FB077A087507F8007608F7000318F70A91
:103AAC00FA1F592DF7037708F900790883120313CD
:103ABC00FF00780884000A128A1500200A168A155D
:103ACC00003A031D6A2D6B2D2D2D0800F601F70110
:103ADC00912D76087107F4007208F3000318F30AAD
:103AEC00F61F792DF3037308F50075088312031381
:103AFC00FF00740884000A128A1500200A168A1521
:103B0C000A168A1501240A168A150130F6070318BD
:103B1C00F70A0030F70776087107F4007208F30013
:103B2C000318F30AF61F9B2DF3037308F5007508B1
:103B3C0083120313FF00740884000A128A150020F4
:103B4C000A168A15003A031DAC2DAD2D6F2D0800F9
:103B5C00FB01FC01760877040319B52DB62DED2D6C
:103B6C00FD01FD0AC42D01300310F60DF70DFF3ECB
:103B7C00031DBA2D0130FA007A08FD07F71FC72D77
:103B8C00C82DB92D01300310FB0DFC0DFF3E031D9C
:103B9C00C92D77087902031DD52D76087802031CF0
:103BAC00D82DD92DE02D7608F8027708031CF903DF
:103BBC00F9027B1401300310F70CF60CFF3E031DC9
:103BCC00E12D0130FD02031DEC2DED2DC82D7C08DF
:103BDC00F7007B08F600080000307005F800003094
:103BEC007105F90080307205FA007F307305FB0017
:103BFC007B087A0479047804031D052E062E0E2EFC
:103C0C000030F3000030F2000030F1000030F00022
:103C1C0000307405F80000307505F9008030760529
:103C2C00FA007F307705FB007B087A04790478046E
:103C3C00031D212E222E2A2E0030F7000030F60014
:103C4C000030F5000030F40077087306031D382EA1
:103C5C0076087206031D382E75087106031D382E62
:103C6C007408700603193B2E3C2E3E2E03103F2E7B
:103C7C0003140800803083160313A306270883124D
:103C8C000313DF0083160313260883120313DE00CD
:103C9C0083160313250883120313DD008316031305
:103CAC00240883120313DC008316031323088312E6
:103CBC000313E30083160313220883120313E20099
:103CCC0083160313210883120313E10083160313D5
:103CDC00200883120313E0000A168A1178250A16AD
:103CEC008A15831203135F0883160313A300831230
:103CFC0003135E0883160313A200831203135D08DB
:103D0C0083160313A100831203135C088316031399
:103D1C00A000080073087204710470040319972E34
:103D2C00982EDB2EF901F90AA82E0130F8000310A9
:103D3C00F00DF10DF20DF30DF80B9D2E0130F80086
:103D4C007808F907F31FAB2EAC2E9B2E7308770265
:103D5C00031DBA2E72087602031DBA2E7108750265
:103D6C00031DBA2E70087402031CBD2EBE2ECC2E61
:103D7C007008F4027108031C710FF5027208031C21
:103D8C00720FF6027308031C730FF7020130031055
:103D9C00F30CF20CF10CF00CFF3E031DCD2E013098
:103DAC00F902031DDA2EDB2EAC2E7708F300760811
:103DBC00F2007508F1007408F0000800F601F31F1A
:103DCC00E82EE92EF02EF209F309F20A0319F30A90
:103DDC00F601F60AF11FF32EF42EF92EF009F10973
:103DEC00F00A0319F10A700871040319FE2EFF2E54
:103DFC002E2FF501F50A0D2F01300310F00DF10DEA
:103E0C00FF3E031D032F0130F4007408F507F11F6A
:103E1C00102F112F022F71087302031D172F70081A
:103E2C007202031C1A2F1B2F212F7008F20271082B
:103E3C00031CF303F30201300310F10CF00CFF3EF2
:103E4C00031D222F0130F502031D2D2F2E2F112FB4
:103E5C0076080319322F332F382FF209F309F20A9F
:103E6C000319F30A7308F1007208F000080000301F
:103E7C000A168A1572240A168A151A30F500F830BB
:103E8C00F400F40B472FF50B472F000003300A16F4
:103E9C008A1558240A168A150730F5007D30F4006F
:103EAC00F40B562FF50B562F03300A168A1558248F
:103EBC000A168A150F30F5004730F400F40B642F06
:103ECC00F50B642F692F03300A168A1558240A162D
:103EDC008A1502300A168A1558240A168A150230D9
:103EEC000A168A1558240A168A1508300A168A15D5
:103EFC0058240A168A1500300A168A1558240A16F0
:103F0C008A150C300A168A1558240A168A150030A0
:103F1C000A168A1558240A168A1506300A168A15A6
:103F2C0058240A168A1508000030FC000030FB00EB
:103F3C000030FA000030F900730872047104700448
:103F4C000319A92FAA2FF72FFD01FD0ABA2F013053
:103F5C00F8000310F00DF10DF20DF30DF80BAF2F6F
:103F6C000130F8007808FD07F31FBD2FBE2FAD2FD1
:103F7C000130F8000310F90DFA0DFB0DFC0DF80BD8
:103F8C00C02F73087702031DD52F72087602031D0C
:103F9C00D52F71087502031DD52F70087402031CF0
:103FAC00D82FD92FE82F7008F4027108031C710F59
:103FBC00F5027208031C720FF6027308031C730FD0
:103FCC00F702791401300310F30CF20CF10CF00C25
:103FDC00FF3E031DE92F0130FD02031DF62FF72FC5
:103FEC00BE2F7C08F3007B08F2007A08F1007908F8
:043FFC00F0000800C9
:02400E007A3FF7
:00000001FF
