:1000000005308A000B2D00000A108A100A118207A1
:1000100028340C34013406344127202ACF204E00E6
:100020004E24C92254224F1DA01230192E196600E9
:100030004300CE23D52C2024C922CD10A1100001CD
:1000400020102010201020102010201020004E24FE
:10005000C92254224F1D25183217323300014300A4
:100060003C30840083130008031944280130F80051
:10007000F701F70B3928F80B38284A30F700F70B4F
:100080003F284228800B36280800431849280812C8
:100090004A280816831608128312C318512888129A
:1000A0005228881683168812831243195928081378
:1000B0005A280817831608138312C3196128881356
:1000C0006228881783168813000083128815831608
:1000D00088116A28831288118316881183120800F8
:1000E000C4018316081600308312081A0130C404B4
:1000F0008316881600308312881A0130F700031027
:10010000F70D7708C4048316081700308312081B04
:100110000130F700F70DF70DFC30F7057708C40440
:100120008316881700308312881B0130F700F70D03
:10013000F70DF70DF830F7057708C4044408F80008
:100140000800881083168810081688160817881764
:100150008312081583160811000083128815831670
:1001600088110000831270207808C300881183165C
:1001700088110000831288158316881100008312ED
:1001800070207808C200881183168811081288121E
:10019000081388138312430EF700F030F705770831
:1001A0004204F8007808C200C21FD8288316A42889
:1001B000C008031DDD288810DE28881483168810E7
:1001C00000008312081183160811000083128811A1
:1001D000831688118312410EC2000F30C2054208F7
:1001E000C300452041080F39C200C3004520080064
:1001F00083160812881208138813881188100811B2
:100200008312881083168810831208118316081130
:1002100083128811831688110F308312BC0030209E
:100220000130AE002E08033C031C1E290330C3001E
:1002300045200530BC003020AE0A12290230C30030
:100240004520AE012E08033C031C2F292E08042054
:10025000AF00C0012F08C100A120AE0A22298A11D7
:100260000A121A2D3D0B3629BE014A293D08023CCF
:10027000031D3D294030BE004A293D08033C031DB3
:1002800044291430BE004A293D08043C031D4A2974
:100290005430BE0001303C02BE073E088038BF002B
:1002A000C0013F08C100A12008003B080C3A031917
:1002B0006029063A03196829023A03196E2973293D
:1002C000C0010130C100A1200230BC0030207829DB
:1002D0000130BC000230BD0032217829C00110304D
:1002E000C100A12078290130C0003B08C100A12035
:1002F00008008E30F7002F08F8002E08F900FA01E8
:10030000F808031D8D297908F800F9010830F70273
:10031000F808031D8D29F70195290310F81B94296E
:10032000F90DF80DF7038D29F8138A110A12422DE1
:100330003B080319082AC3003F080319082AC3070A
:100340000318A9297F30C302031C082A0319082AAD
:10035000AD298130C3070318082A4308F700F801C4
:10036000F901FA013C08C700C7173D08C6003E085E
:10037000C5001830C300C401451CD6294208FA073D
:10038000031CC829F90A031DC829F80A0319C41750
:100390004108F907031CCF29F80A0319C4174008BC
:1003A000BD00BD173D08F8070318C417C40DF80CAD
:1003B000F90CFA0CC70CC60CC50C0310C30BBB29F7
:1003C0000130F7070318082AF81BED29C70DFA0DAD
:1003D000F90DF80DF7030319082AC71FFE29FA0AB9
:1003E000031DFE29F90A031DFE29F80A031DFE2933
:1003F000F80CF90CFA0CF70A0319082A3C08C40097
:100400004008C406C41F062AF8170C2AF8130C2A41
:10041000F701F801F901FA01080032080319D22A9C
:10042000BE0036080319D22ABE02031C1C2A7F30E4
:10043000BE070318D22A222A8130BE02031CD22A08
:100440000319D22A3E08F700F801F901FA01BD01AB
:100450003308BC00BC173408BB003508BA0019309B
:10046000BE003908BA020318452A0130BB0203183E
:10047000452ABC020318452ABD020318452ABD0AB5
:10048000BC0ABB0A3908BA07772A3808BB02031826
:10049000602A0130BC020318602ABD020318602ADA
:1004A000BD0ABC0A3808BB073908BA07031C772AFB
:1004B000BB0A031D772ABC0A031D772ABD0A772AC7
:1004C00037088038BC020318762A0130BD020318B1
:1004D000762ABD0A37088038BC073808BB07031CDA
:1004E000542ABC0A031D542ABD0A542A7A14BE0B8E
:1004F0007A2A852A0310BA0DBB0DBC0DBD0D031061
:10050000FA0DF90DF80DBF0D312A3F1C8D2A03108D
:10051000F80CF90CFA0CBF0C902AF7030319D22A35
:10052000BF1BB92A0310BA0DBB0DBC0DBD0D390898
:10053000BA020318A52A0130BB020318A52ABC027F
:100540000318A52ABD02031CC82A3808BB020318D9
:10055000B02A0130BC020318B02ABD02031CC82A0D
:1005600037088038BC020318B92A0130BD02031CC9
:10057000C82AFA0A031DC82AF90A031DC82AF80A5C
:10058000031DC82AF70A0319D22AF80CF90CFA0C31
:100590003308BE003708BE06BE1FD02AF817D62A79
:1005A000F813D62AF701F801F901FA018A110A12A3
:1005B000712D2F08B6003308B606B61FE42A0311C2
:1005C0000310AF1B0314172B2F08B6003208B70017
:1005D0002E08B7020319F22AB61F172B0308013A97
:1005E0008300172B3308B7002F08B7020319FE2A20
:1005F000B61F172B0308013A8300172B3408B700E6
:100600003008B70203190A2BB61F172B0308013A4B
:100610008300172B3508B7003108B7020319162BD2
:10062000B61F172B0308013A8300172B03108A11FA
:100630000A12A72D0B08AE008B13831603178C1715
:100640000C140000000083120313AE1B8B1703175A
:100650000C087F3903196E2B0313AE0003170D0826
:100660000313AF0003170F080313B0002E08BB00DD
:1006700055212F0803178D000313300803178F002F
:1006800003130B08B1008B13831603178C170C147C
:100690000000000083120313B11B8B1703170C0D0E
:1006A0000E0D7F3903196E2B0313AE0003170D08CF
:1006B0000313AF0003170F080313B0002E08BB008D
:1006C00055212F0803178D000313300803178F00DF
:1006D0008D0A03198F0A03131A2B0317031308003B
:1006E0000B08AF008B13831603178C170C14000034
:1006F000000083120313AF1B8B170318A72B0317DC
:100700000C087F390313AF0003170D080313B00063
:1007100003170F080313B1002F08BB005521300841
:1007200003178D000313310803178F0003130B0801
:10073000B2008B13831603178C170C1400000000F3
:1007400083120313B21B8B17AE0BA72BC62B0317F9
:100750000C0D0E0D7F390313AF0003170D080313A3
:10076000B00003170F080313B1002F08BB00552179
:10077000300803178D000313310803178F008D0A0B
:1007800003198F0A03100313AE0B702B0800831894
:10079000CC2B433084008313F701F801F901FA01EF
:1007A000C301C401C501C6014208410440043F041D
:1007B00003190A2C2030C7000310BB0DBC0DBD0D62
:1007C000BE0DC30DC40DC50DC60D42084602031D66
:1007D000F32B41084502031DF32B40084402031D7F
:1007E000F32B3F084302031C042C3F08C3024008BC
:1007F000031C400FC4024108031C410FC5024208FC
:10080000031C420FC6020314F70DF80DF90DFA0D83
:10081000C70BDC2B43088000840A44088000840A4C
:1008200045088000840A4608800008000408B300D8
:100830003208B5000319352C3108BE003008BD0060
:100840002F08BC002E08BB00C201C1012030C0002F
:100850008230BF0098217A08B1007908B00078088A
:10086000AF007708AE00B50B1C2C3108BE00300875
:10087000BD002F08BC002E08BB003B08B63CBB00E7
:10088000FA013C08BF00BC170310BC0CBD0CBE0C29
:10089000FA0CF90CF80CF70CBB0B442CBF1F5B2CAB
:1008A000F709F809F909FA09F70A0319F80A031907
:1008B000F90A0319FA0A7A08B1007908B000780831
:1008C000AF007708AE00B11F722CB303B316AE09A8
:1008D000AF09B009B109AE0A0319AF0A0319B00A8A
:1008E0000319B10A3B30BA009A30B900CA30B800D7
:1008F000B7010A30B50032080319B30A83142E3049
:10090000840083133108BE003008BD002F08BC00EE
:100910002E08BB003A08C2003908C1003808C000E0
:100920003708BF00C7237808F708031DAA2C320A2E
:1009300035020319AA2C33080319AC2C0F393502E0
:100940000319A42C0318DC2CB31BDC2C331BAC2C9C
:100950002030D82C2030B305B31EBA2CB312320885
:10096000031DB3037708B3002D30BB0055213308B6
:10097000F700B30132083502031DC82C7708B30015
:100980002E30BB0055213308F7002030B30500306E
:100990003030B31ED82CB3123208031DB3037708CE
:1009A000B3002D30BB0055213308F700B3013030C0
:1009B000F7077708BB00552183103A08BE003908B5
:1009C000BD003808BC003708BB00C201C101C0012E
:1009D0000A30BF00C7237A08BA007908B90078083E
:1009E000B8007708B700B50B7E2C08002F308400C4
:1009F0008313000803190A2D0130F800F701F70BE3
:100A0000FF2CF80BFE2C4A30F700F70B052D082DB4
:100A1000800BFC2C080003081F398300A101A001F2
:100A200083161F149F141F159F1107309C008313FA
:100A30008312F8280C30BB00552183161F13831234
:100A40001F179F1783169F1783121F1483161F14D7
:100A50009F101F159F110030F80083121F08C7391F
:100A600078049F001F151F19332D1E08F9008316E7
:100A70001E08F8007908FA001E088312AE007908F3
:100A8000AF0079297A08A9007908A8007808A7009A
:100A90007708A6002908BE002808BD002708BC006A
:100AA0002608BB00C201C1012030C0008130BF0058
:100AB00098217A08B1007908B0007808AF0077086B
:100AC000AE007A08B5007908B4007808B30077085A
:100AD000B200B901C030B8007F30B7008830B6002E
:100AE0000D2A7A08A5007908A4007808A3007708E1
:100AF000A2002508BE002408BD002308BC0022086F
:100B0000BB00C201C1014830C0008530BF00982140
:100B10007A08AD007908AC007808AB007708AA0025
:100B2000831686108312861083160611831206110F
:100B30002D08B1002C08B0002B08AF002A08AE0029
:100B4000B501B4014830B3008430B200D92A031C87
:100B5000DB2D0130BC00BD0032210C3003178D00AD
:100B600000308F0003131A230130BC000230BD0097
:100B70003221103003178D0000308F000310093030
:100B80000313AE007023C93084002D08B1002C0877
:100B9000B0002B08AF002A08AE000230B2001624C5
:100BA000DF30BB005521183003178D0000308F0057
:100BB00003131A23342E0130BC00BD00322119303A
:100BC00003178D0000308F0003131A230230AE008C
:100BD000FA30AF00F624AE0BE82D0130BC00BD00AA
:100BE0003221203003178D0000308F0003131A23A9
:100BF0000230AE009630AF00F624AE0BFA2D013075
:100C0000BC000230BD003221273003178D000030B8
:100C10008F00031008300313AE007023C930840026
:100C20002D08B1002C08B0002B08AF002A08AE0038
:100C30000230B2001624DF30BB0055212F300317DD
:100C40008D0000308F0003131A2383168610831241
:100C5000861483160611831206150230AE00FA3090
:0C0C6000AF00F624AE0B2F2E322D6300E7
:02400E00333F3E
:00000001FF
;PIC16F877A
;CRC=153D  CREATED="20-Thg6-22 18:57"
